:020000040000fa
:080000000001040000000000f3
:020000040000fa
:0400080004020000ee
:020000040000fa
:04000c0004020000ea
:020000040000fa
:0400100004020000e6
:020000040000fa
:0400140004020000e2
:020000040000fa
:0400180004020000de
:020000040000fa
:04001c0004020000da
:020000040000fa
:0400200004020000d6
:020000040000fa
:0400240004020000d2
:020000040000fa
:0400280004020000ce
:020000040000fa
:04002c0004020000ca
:020000040000fa
:0400300004020000c6
:020000040000fa
:0400340004020000c2
:020000040000fa
:0400380004020000be
:020000040000fa
:04003c0004020000ba
:020000040000fa
:0400400004020000b6
:020000040000fa
:0400440004020000b2
:020000040000fa
:0400480004020000ae
:020000040000fa
:04004c0004020000aa
:020000040000fa
:0400500004020000a6
:020000040000fa
:0400540004020000a2
:020000040000fa
:04005800040200009e
:020000040000fa
:04005c00040200009a
:020000040000fa
:040060000402000096
:020000040000fa
:040064000402000092
:020000040000fa
:04006800040200008e
:020000040000fa
:04006c00040200008a
:020000040000fa
:040070000402000086
:020000040000fa
:040074000402000082
:020000040000fa
:04007800040200007e
:020000040000fa
:04007c00040200007a
:020000040000fa
:040080000402000076
:020000040000fa
:040084000402000072
:020000040000fa
:04008800040200006e
:020000040000fa
:04008c00040200006a
:020000040000fa
:040090000402000066
:020000040000fa
:040094000402000062
:020000040000fa
:04009800040200005e
:020000040000fa
:04009c00040200005a
:020000040000fa
:0400a0000402000056
:020000040000fa
:0400a4000402000052
:020000040000fa
:0400a800040200004e
:020000040000fa
:0400ac00040200004a
:020000040000fa
:0400b0000402000046
:020000040000fa
:0400b4000402000042
:020000040000fa
:0400b800040200003e
:020000040000fa
:0400bc00040200003a
:020000040000fa
:0400c0000402000036
:020000040000fa
:0400c4000402000032
:020000040000fa
:0400c800040200002e
:020000040000fa
:0400cc00040200002a
:020000040000fa
:0400d0000402000026
:020000040000fa
:0400d4000402000022
:020000040000fa
:0400d800040200001e
:020000040000fa
:0400dc00040200001a
:020000040000fa
:0400e0000402000016
:020000040000fa
:0400e4000402000012
:020000040000fa
:0400e800040200000e
:020000040000fa
:0400ec00040200000a
:020000040000fa
:0400f0000402000006
:020000040000fa
:0400f4000402000002
:020000040000fa
:0400f80004020000fe
:020000040000fa
:0400fc0004020000fa
:020000040000fa
:0401000004020000f5
:020000040000fa
:0401040004020000f1
:020000040000fa
:0401080004020000ed
:020000040000fa
:04010c0004020000e9
:020000040000fa
:0401100004020000e5
:020000040000fa
:0401140004020000e1
:020000040000fa
:0401180004020000dd
:020000040000fa
:04011c0004020000d9
:020000040000fa
:0401200004020000d5
:020000040000fa
:0401240004020000d1
:020000040000fa
:0401280004020000cd
:020000040000fa
:04012c0004020000c9
:020000040000fa
:0401300004020000c5
:020000040000fa
:0401340004020000c1
:020000040000fa
:0401380004020000bd
:020000040000fa
:04013c0004020000b9
:020000040000fa
:0401400004020000b5
:020000040000fa
:0401440004020000b1
:020000040000fa
:0401480004020000ad
:020000040000fa
:04014c0004020000a9
:020000040000fa
:0401500004020000a5
:020000040000fa
:0401540004020000a1
:020000040000fa
:04015800040200009d
:020000040000fa
:04015c000402000099
:020000040000fa
:040160000402000095
:020000040000fa
:040164000402000091
:020000040000fa
:04016800040200008d
:020000040000fa
:04016c000402000089
:020000040000fa
:040170000402000085
:020000040000fa
:040174000402000081
:020000040000fa
:04017800040200007d
:020000040000fa
:04017c000402000079
:020000040000fa
:040180000402000075
:020000040000fa
:040184000402000071
:020000040000fa
:04018800040200006d
:020000040000fa
:04018c000402000069
:020000040000fa
:040190000402000065
:020000040000fa
:040194000402000061
:020000040000fa
:04019800040200005d
:020000040000fa
:04019c000402000059
:020000040000fa
:0401a0000402000055
:020000040000fa
:0401a4000402000051
:020000040000fa
:0401a800040200004d
:020000040000fa
:0401ac000402000049
:020000040000fa
:0401b0000402000045
:020000040000fa
:0401b4000402000041
:020000040000fa
:0401b800040200003d
:020000040000fa
:0401bc000402000039
:020000040000fa
:0401c0000402000035
:020000040000fa
:0401c4000402000031
:020000040000fa
:0401c800040200002d
:020000040000fa
:0401cc000402000029
:020000040000fa
:0401d0000402000025
:020000040000fa
:0401d4000402000021
:020000040000fa
:0401d800040200001d
:020000040000fa
:0401dc000402000019
:020000040000fa
:0401e0000402000015
:020000040000fa
:0401e4000402000011
:020000040000fa
:0401e800040200000d
:020000040000fa
:0401ec000402000009
:020000040000fa
:0401f0000402000005
:020000040000fa
:0401f4000402000001
:020000040000fa
:0401f80004020000fd
:020000040000fa
:0401fc0004020000f9
:020000040000fa
:100200006f8220000eff27000e0188000000000012
:10021000000020000000e000020032000001200089
:100220002002880014000700830007000000e0009f
:1002300003003a00407b200001002000020037004c
:100240000000200001002000810f7000010032003a
:1002500014000700000020000000e000020032004f
:100260000000020000000000fa060200000000008a
:100270000040da000000fe004440a90020002000f9
:100280000000e00003003200100020009001880010
:100290004440a800000006008a1f78008b1f7800e9
:1002a00000000600a1028800800478000000eb0036
:1002b0001f003700e284440054a0b4009905ba003e
:1002c000e284440054a0b4009906ba00e2844400d9
:1002d00054a0b4000006eb00476fde00fd07b2003b
:1002e000ae018800636ce10003003a00eaff0700fa
:1002f0000000eb000e003700606ce10008003a00df
:10030000004deb000a05e800020039003420ec0043
:100310000af0a0008b05e900f9ff3e000400370059
:100320006168e100010032000086eb000b0007006d
:1003300019c7ba001905ba000e04e00003003a001c
:100340000a00e000dbff3a0000000600fe07b200f2
:10035000ae0288008a047800f5ff37000cd0a300b5
:10036000e20f4d001c00390089027800354dba00bb
:100370000a05e800020039003420ec000af0a00071
:100380008b05e9000f003200254dba000a05e80090
:10039000020039003420ec000af0a0008b05e900cf
:1003a000080032000c00e0000600320015cdba0053
:1003b0000a05e800020039003420ec000af0a00031
:1003c0008b05e9008984e80054a0b4000b00e0002c
:1003d000e2ff3a00000006009902ba00055d7800cd
:1003e0008b05e900f7ff3200c82ade00055d7800c2
:1003f0008b05e900f3ff32000c00e000f1ff320052
:1004000019ddba00eeff37000040da000000fe0000
:100410000600fa00000f78001107980022079800e4
:100420001e009000ae0090008d0007002e0090008e
:0c0430000080fa0000000600000005003b
:020000040000fa
:10043c000800fa00889fbe008a9fbe008c9fbe00f9
:10044c0041098000f07f2e00008060004009880088
:10045c004109800000302000010070004009880034
:10046c0041098000f0f32f000080600040098800f3
:10047c0028a1a9002881a9002841a900002020005a
:10048c009009880031e1a90031c1a8003181a80090
:10049c003141a8003121a80031a1a8003101a900e7
:1004ac0081098000f0f92f0000806000800988002d
:1004bc00a1098000f0ff230000806000a0098800e3
:1004cc00a1098000000c200001007000a009880028
:1004dc00a1098000c003200001007000a009880061
:1004ec00a00980003000b300a00988002a61ef0049
:1004fc0010002000700988002de1a8002dc1a80073
:10050c002d81a8002da1a9006109800000602000a8
:10051c0001007000600988002d01a80029e1a800e5
:10052c000088230011002000bb0107000088230075
:10053c0011002000b8010700320320000100280040
:10054c00010f78004100200011079800a0018000e5
:10055c009e0190009e007800a3018800820878001c
:10056c00a00188005003200001002000aa01070010
:10057c0022032000010028002107980041002000e0
:10058c0031079800a0018000be019000ae009000e1
:10059c00a301880082087800a00188005003200085
:1005ac00010020009c010700820320000c002800a1
:1005bc004d002000a00180008d0178008c00780097
:1005cc00a301880082087800a00188005003200055
:1005dc000100200090010700c20020000a00280042
:1005ec004b002000a00180008b0178008a0078006d
:1005fc00a301880082087800a00188005003200025
:10060c00010020008401070062002000080028007f
:10061c0049002000a0018000890178008800780042
:10062c00a301880082087800a001880050032000f4
:10063c000100200078010700a700070010c0b300dc
:10064c004f06be004f05be004f04be000080fa00ee
:10065c00000006000400fa00000f78001107980053
:10066c000a0037001e007800104078000000fb00e4
:10067c000000e000110032001e00780010407800ed
:10068c001e0fe80010000700000000001e00900084
:10069c0000f0a7000000ea000000ea004f00de00b6
:1006ac00004078009e0090008100e900110798003e
:1006bc000004e000ebff3a000100370000000000ee
:1006cc000080fa00000006000200fa00889fbe00bd
:1006dc00004f78001e00fb00ea0f50000b003200a8
:1006ec00ea0f500003003c00e80f50000e003200ef
:1006fc0014003700ec0f500010003200ed0f5000ca
:10070c0010003a00930007004100370004c8bf00f6
:10071c000004e00002003a00340107003c003700fe
:10072c00270107003a003700ab00070000c2b300f6
:10073c00e5ff0700a800070035003700660007003a
:10074c003300370005c8bf00f04f500020003a00be
:10075c000568ef0004c8bf000004e0000f003a0079
:10076c00020c20000400280045002000a00180009d
:10077c008501780084007800a30188008208780045
:10078c00a001880050032000010020002201070076
:10079c0010c0b30004e8b7000d00370004082000b7
:1007ac000200280043002000a00180008302780092
:1007bc0082007800a501880084087800a0018800d8
:1007cc005003200001002000130107000468ef0013
:1007dc001e01fb002800280049002000a001800019
:1007ec008901780088007800a301880082087800cd
:1007fc00a001880050032000010020000601070022
:10080c0005c8bf000040e80005e8b7000000000084
:10081c004f04be000080fa00000006000600fa003b
:10082c00889fbe0010079800210798002e009000aa
:10083c00680040004300dd00000278000200280040
:10084c0043002000a0018000830278008200780021
:10085c00a501880084087800a0018800a0882000e9
:10086c0001002000ec0007000000eb00000f7800f6
:10087c000000eb00000f7800110037001e0078001c
:10088c009e00900000804000104078000001fb00aa
:10089c002800280049002000a00180008901780070
:1008ac0088007800a301880082087800a0018800e5
:1008bc005003200001002000d70007001e0fe800a5
:1008cc001e007800e70f5000ecff34004f04be0010
:1008dc000080fa00000006000000fa00889fbe00ad
:1008ec00130020000000280041002000a20180001d
:1008fc000102780000007800a40188000308780049
:10090c00a2018800a088200001002000c20007007e
:10091c00220020000800280049002000a0018000cf
:10092c008901780088007800a3018800820878008b
:10093c00a0018800a088200001002000b60007005c
:10094c000468ef000568ef004f04be000080fa0059
:10095c00000006000000fa004480200014427800d9
:10096c000404e0000d003a000408200002002800f6
:10097c0043002000a00180008302780082007800f0
:10098c00a501880084087800a0018800500320008d
:10099c0001002000a00007000c003700030c200011
:1009ac000000280041002000a20180000102780014
:1009bc0000007800a401880003087800a2018800d8
:1009cc005003200001002000930007000568ef0091
:1009dc000080fa00000006000200fa005680200099
:1009ec00164378000604e00028003a0004c8bf0053
:1009fc000004e0000f003a00020c20000400280064
:100a0c0045002000a001800085017800840078005a
:100a1c00a301880082087800a00188005003200000
:100a2c00010020007c00070010c0b30004e8b700f0
:100a3c000d003700040820000200280043002000ad
:100a4c00a00180008302780082007800a501880054
:100a5c0084087800a00188005003200001002000c9
:100a6c006d0007000468ef000040eb00004f7800b9
:100a7c0002003700190007001e4fe8001e407800e6
:100a8c00ee4f5000fbff3600120037005280200062
:100a9c00124178000241e900824178005180200027
:100aac00834878000301200000002800410020004a
:100abc00a20180000102780000007800a4018800e7
:100acc0003087800a20188005003200001002000d8
:100adc00510007000080fa00000006000000fa0038
:100aec00889fbe008a9fbe004301200000002800a2
:100afc0041002000a2018000010278000000780073
:100b0c00a401880003087800a2018800500320008b
:100b1c00010020004000070005c8bf000040e800ad
:100b2c0005e8b70005c8bf00f04f500020003a00a0
:100b3c000568ef0004c8bf000004e0000f003a0095
:100b4c00020c20000a0028004b002000a0018000ad
:100b5c008b0178008a007800a30188008208780055
:100b6c00a001880050032000010020002a0007008b
:100b7c0010c0b30004e8b7000d00370002082000d5
:100b8c000800280049002000a0018000890178009d
:100b9c0088007800a301880082087800a0018800f2
:100bac0050032000010020001b0007000468ef0028
:100bbc004f05be004f04be000080fa000000060086
:100bcc000200fa000040eb00004f780002003700f2
:100bdc0081ff07001e4fe8001e407800ef4f5000c9
:100bec00fbff36000080fa00000006000200fa004d
:100bfc000040eb00004f780002003700b7ff070001
:100c0c001e4fe8001e407800ef4f5000fbff3600ef
:100c1c000080fa00000006000400fa00008fbe00fd
:100c2c0005003700000000000081eb008081eb0024
:100c3c001e0f41005e9749001e00be00e00f5000e1
:100c4c00e08f5800f7ff3a000080fa000000060021
:100c5c000200fa00004f78001e4078000004e0000b
:100c6c000d003200f2002000040028004500200096
:100c7c00a00180008501780084007800a301880021
:100c8c0082087800a0018800500320000100200099
:100c9c00e1ff07000c003700c40020000200280010
:100cac0043002000a00180008302780082007800bd
:100cbc00a501880084087800a0018800500320005a
:100ccc0001002000d4ff07000080fa00000006009d
:100cdc000800fa00881f7800300798001840800040
:100cec000800e90020079800fbfe07000000eb005d
:100cfc00000f7800350037000000eb00100798005b
:100d0c002d003700880078001e0078000088b9009c
:100d1c0000007800be009000808040001e00900013
:100d2c0000804000104078000000fb001103200000
:100d3c00810f50001100320011032000810f500070
:100d4c0004003c0001032000810f50000800320019
:100d5c001300370021032000810f50000a003200dd
:100d6c0031032000810f50000a0032000c003700c4
:100d7c000040eb0054fe07000c00370010c0b3001d
:100d8c0051fe07000900370020c0b3004efe0700db
:100d9c000600370030c0b3004bfe070003003700dd
:100dac000040eb0048fe0700000000001e00900011
:100dbc000000e80010079800104080009e00900092
:100dcc00808f5000cfff35001e0fe80000408000e0
:100ddc009e007800808f5000c7ff35004f047800cc
:100dec000080fa00000006000e00fa00889fbe008a
:100dfc0050079800610798008dfd07008000eb00fc
:100e0c00e081200085fe070011002000608020009a
:100e1c0082fe070021002000e08020007ffe0700fa
:100e2c0031002000608120007cfe0700144080000f
:100e3c00064080000400e900200798008403780035
:100e4c000600e90030079800040078006101b80042
:100e5c00060078008000eb00009cb9008802780046
:100e6c00028cb90008047800888242000010b80097
:100e7c008182420085007800040078006101b8008e
:100e8c00060078008000eb00009cb9008802780016
:100e9c00028cb90008047800888242000010b80067
:100eac00818242008500780084007800060078007a
:100ebc000088b900000078000000e8000000e8009d
:100ecc000000d100800040000f00780081874700af
:100edc000000e8000000d10000004000400798002e
:100eec000000eb00000f7800130037000000eb004f
:100efc00100798000c0037004e0190001e0078007f
:100f0c0000b8b90000007800800041001e0090007d
:100f1c000080400021c3b300014878001e009000ff
:100f2c000000e800100798001e009000ef0f500022
:100f3c00f1ff34001e0fe8001e007800e10f500096
:100f4c00eaff34004e00900061ff070000a026006d
:0c0f5c008101200018000700faff370098
:020000040000fa
:100f68000608000018000000820000001f1f1f0074
:100f78001f00000000000000000000001f1f1f00ed
:100f88001f1f1f001f1f1f001f1f1f001e0800001c
:100f980008000000800000000008000004000000b5
:100fa8008200000002001000000000000408000099
:0c0fb800020000008000000000000000ab
:020000040000fa
:100fc400f03fb1000180b10006003500ee030900d6
:100fd40000000000403fb1000180b100fbff3d0074
:100fe4001000b000203fb00002003500008009006e
:080ff4000000000000000600ef
:020000040000fa
:020000040015e5
:047e0000ffffff0081
:020000040000fa
:020000040015e5
:047e2000ff1f000040
:020000040000fa
:020000040015e5
:047e3000ffffff0051
:020000040000fa
:020000040015e5
:047e3800bfffff0089
:020000040000fa
:020000040015e5
:047e4000ffffff0041
:020000040000fa
:020000040015e5
:047e4800ffffff0039
:020000040000fa
:020000040015e5
:047e5000deffff0052
:020000040000fa
:020000040015e5
:047e5800ffffff0029
:00000001FF
